:020000040800F2
:100000000000022091170008E1170008E11700081E
:10001000E1170008E1170008E117000800000000E0
:10002000000000000000000000000000E1170008D0
:10003000E117000800000000E1170008E1170008C0
:10004000E1170008E1170008E1170008E1170008B0
:10005000E1170008E1170008E1170008E1170008A0
:10006000E1170008E1170008E1170008E117000890
:10007000E1170008E1170008E1170008E117000880
:10008000E1170008E1170008E1170008E117000870
:10009000E1170008E1170008E1170008E117000860
:1000A000E1170008E1170008E1170008E117000850
:1000B000E1170008E1170008E1170008E117000840
:1000C000E1170008E1170008E1170008E117000830
:1000D000E1170008E1170008E1170008E117000820
:1000E000E1170008E1170008E1170008E117000810
:1000F000E1170008E1170008E1170008E117000800
:10010000E1170008E1170008E1170008E1170008EF
:10011000E1170008E1170008E1170008E1170008DF
:10012000E1170008E1170008E1170008E1170008CF
:10013000E1170008E1170008E1170008E1170008BF
:10014000E1170008E1170008E1170008E1170008AF
:10015000E1170008E1170008E1170008E11700089F
:10016000E1170008E1170008E1170008E11700088F
:10017000E1170008E1170008E1170008E11700087F
:08018000E1170008E117000877
:1001880010B5054C237833B9044B13B10448AFF3C9
:1001980000800123237010BD8804002000000000A7
:1001A800E01A000808B5064B1BB106480649AFF32C
:1001B80000800648036813B1054B03B1984708BD92
:1001C80000000000E01A00088C04002084040020CD
:1001D80000000000154B002B08BF134B9D46A3F5EC
:1001E800803A00218B460F461348144A121A01F030
:1001F8002DFB0F4B002B00D098470E4B002B00D047
:1002080098470020002104000D000D48002802D066
:100218000C4801F0E7FB01F0F1FA2000290001F099
:1002280085FA01F0DBFA00BF0000080000000000BA
:10023800000000000000000088040020B404002032
:10024800ED190008F91900080E4A30B4C0F3072563
:10025800148811880B4B4906A4B2F9D52106F7D5A5
:100268006AB292B29A80C0B219881A88054C5506AB
:1002780089B2F9D50A06F7D540B280B2A08030BC61
:10028800704700BF004400402DE9F041012086B0CE
:1002980001461D4F1D4E00F029FC4FF4003001218E
:1002A80000F048FC00240225042338464FF00108DA
:1002B800694600938DF805508DF804508DF8064076
:1002C8008DF8078000F090FD38462946072200F097
:1002D80029FE08234FF4E1320DEB03013046029268
:1002E800ADF81230ADF80C40ADF80E40ADF8104046
:1002F800ADF8144001F064F83046414601F0E6F8E4
:1003080006B0BDE8F08100BF000002400044004094
:1003180003783BB10346002013F8012F0130002A6F
:10032800FAD170471846704710B4074B19881A88D5
:10033800054C520689B2F9D50A06F7D580B2A080D5
:100348005DF8044B704700BF0044004010B4064BF2
:1003580019881A88044C520689B2F9D50A06F7D5C5
:10036800A0805DF8044B70470044004030B4047826
:100378006CB1084B1D4619881A88520689B2FAD5FD
:100388000A06F8D5AC8010F8014F002CF3D10020F4
:1003980030BC704700440040037833B10138002274
:1003A80000F8012F4378002BFAD10020704700BFD6
:1003B800394A3A4BD2F88810394841F47001C2F8EA
:1003C80088101968002241F0010119609A601968C3
:1003D80021F0847121F4803119605860196882B065
:1003E80021F480211960DA60009201921A6842F4BF
:1003F80080321A601A4603E0009BB3F5A06F09D05B
:10040800136803F400330193009B01330093019BAD
:10041800002BF1D0214B1B6813F4003318BF0123C4
:100428000193019B012B05D01B4B4FF000629A6092
:1004380002B07047194B1B4A186C1B4940F080509A
:100448001864106840F4804010609A689A609A684E
:1004580042F400429A609A6842F4A0529A60596045
:100468001A6842F080721A6019460B680B4A9B01A1
:10047800FBD50E4B40F205611960936823F0030326
:100488009360936843F002039360936803F00C034E
:10049800082BFAD1C8E700BF00ED00E000380240A1
:1004A800103000240070004019544007003C0240FE
:1004B800154B9A6802F00C02042A23D0082A09D0A6
:1004C800124A1149124B8968C1F30311595CCA4099
:1004D8001A617047586859685B6842024CBF0D4AF8
:1004E8000A4A01F03F01C3F38813B2FBF1F202FBA1
:1004F80003F2054B5B68C3F3014301335B00B2FBB6
:10050800F3F2DEE7034ADCE7003802400024F40097
:100518000400002000127A00101B000800000020D0
:100528008404002088040020B40400201A4B587862
:10053800020612D41978194A01FB00F01080987845
:1005480010F0800F16D1DB7800FB01F05080180600
:100558001AD403FB01F191807047404219780F4A81
:1005680000F0FF0000FB01F040421080987810F086
:10057800800FE8D0404200F0FF0000FB01F0DB787C
:10058800404250801806E4D55B4203F0FF0303FBAA
:1005980001F1494291807047B0040020A80400206E
:1005A80010B5102082B0012100F0A0FA0821002324
:1005B80002220091012407488DF8044069468DF80D
:1005C80006308DF807308DF8052000F00DFC02B0DC
:1005D80010BD00BF00100240034B082208B11A8367
:1005E80070475A83704700BF0010024038B5074C67
:1005F800082500F03F00658340F0800000F014F902
:10060800552000F011F9258338BD00BF00100240C5
:1006180010B52920FFF7EAFF064C60702B20FFF782
:10062800E5FFA0702D20FFF7E1FFE070BDE8104066
:10063800FFF77CBFB004002070B5064C08250E46B5
:1006480000F03F00658300F0EFF8304600F0ECF86A
:10065800258370BD001002402DE9F041184B194D5B
:100668000024122780461C805C809C806C70AC70D3
:10067800EC702F70FFF794FF134B08221A830320A6
:1006880000F040F80128064602D03046BDE8F08167
:100698000F20FFF7ABFF3B2803D026463046BDE8C6
:1006A800F0812020B8F1000F05D06721FFF7C4FFC3
:1006B80048232B70E9E74721FFF7BEFF2F70E4E7D7
:1006C800A8040020B00400200010024050B1012806
:1006D8000FD0022811D003284FF0210006D0132193
:1006E800FFF7AABF01462120FFF7A6BF1221FFF797
:1006F800A3BF21201021FFF79FBF21201121FFF761
:100708009BBF00BF2DE9F043444D2E7889B00746C2
:1007180036B16878C31B5842584109B0BDE8F08328
:100728003F4C4FF48050012100F010FAA0680121DD
:1007380000F0DCF9A069012100F0D8F9A06A0121D4
:1007480000F0D4F92068217B052200F0EBFB20693A
:10075800217F052200F0E6FB0DF120080522206A22
:1007680094F82C1000F0DEFBA38848F81C3D4FF0ED
:10077800020920688DF80A6041468DF808908DF8C6
:1007880009908DF80B9000F02FFBA38A2069019344
:10079800414600F029FBA38C206A0193414600F0F2
:1007A80023FB4FF48273ADF80C60ADF81060ADF820
:1007B8000E301FB3012F26D0022F29D00123ADF808
:1007C8001290ADF814304FF4007100220723ADF8F1
:1007D8001610282403A91348ADF81A20ADF81C30C8
:1007E800ADF8184000F0E8FB0E48012100F094FC39
:1007F80001206F70287009B0BDE8F083ADF8127061
:10080800ADF81470DFE7ADF81260ADF81470DAE7F0
:10081800ADF81270ADF81460D5E700BFA40400204D
:10082800180000200030014010B504460A48022193
:1008380000F038FD0028F9D02146074800F0F8FC00
:100848000548012100F02EFD0028F9D0024800F0EB
:10085800EBFCC0B210BD00BF003001400A4B0B4892
:100868001A68002142F001021A6099601A6822F0A1
:10087800847222F480321A6058601A6822F4802246
:100888001A60D960704700BF003802401030002459
:10089800024B00221A701870704700BF02380240DD
:1008A80082B000230B4A019313689B030CD4019B6D
:1008B80001330193019BB3F5A06FF5D1054B18687F
:1008C800C0F3404002B07047019B01330193019B84
:1008D800F4E700BF00380240034B1A6822F0F80220
:1008E80042EAC0001860704700380240014B1860A7
:1008F800704700BF00004742064B002201281A70CB
:100908001A7005D0042802D105221A707047704762
:100918001870704770380240014B1860704700BF6C
:10092800800E474230B4029C064D40EA04605B08E2
:100938000143013B41EA821242EA03436B6030BC47
:10094800704700BF00380240014B1860704700BF75
:10095800600047420907034B41EA8010C3F884004E
:10096800704700BF00380240014B1860704700BF55
:1009780068004742014B1860704700BF4C0047426F
:10098800034B9A6822F0EC62114308439860704761
:1009980000380240034B9A6822F07842114308431A
:1009A8009860704700380240034B9A6822F00302AF
:1009B80010439860704700BF00380240024B9868A7
:1009C80000F00C00704700BF00380240034B9A68E3
:1009D80022F0F00210439860704700BF00380240D0
:1009E800034B9A6822F4E05210439860704700BFA6
:1009F80000380240034B9A6822F4604242EAC00081
:100A080098607047003802401F4A936803F00C034F
:100A1800042B10B41BD0082B1CD01C4B03601A49A4
:100A28001B4A8C68C4F30314145DE34043608C686C
:100A3800C4F38224145D23FA04F4846089685DF8A1
:100A4800044BC1F34231525CD340C3607047114B31
:100A58000360E4E754685168526863024CBF0D4B69
:100A68000A4B01F03F01C2F38812B3FBF1F303FB19
:100A780002F3054A5268C2F3014201325200B3FB45
:100A8800F2F30360CBE700BF003802400024F40013
:100A98004800002000127A0000F44073B3F5407F4C
:100AA80009D1084A916820F0704321F4F81123F421
:100AB80040730B439360034B1A6FC0F30B00104352
:100AC8001867704700380240014B1860704700BF34
:100AD8003C0E4742014B1860704700BF400E47422A
:100AE800014B1860704700BF5C014742044B1A6B0A
:100AF80019B922EA00001863704710431863704759
:100B080000380240044B5A6B19B922EA00005863B6
:100B1800704710435863704700380240044B9A6B83
:100B280019B922EA00009863704710439863704728
:100B380000380240044B1A6C19B922EA0000186404
:100B4800704710431864704700380240044B5A6CD1
:100B580019B922EA00005864704710435864704776
:100B680000380240044B1A6919B922EA00001861DA
:100B7800704710431861704700380240044B5A69A7
:100B880019B922EA0000586170471043586170474C
:100B980000380240044B9A6919B922EA00009861AA
:100BA800704710439861704700380240044B1A6A36
:100BB80019B922EA0000186270471043186270479A
:100BC80000380240044B5A6A19B922EA00005862F8
:100BD800704710435862704700380240044B1A6D42
:100BE80019B922EA00001865704710431865704764
:100BF80000380240044B5A6D19B922EA00005865C2
:100C0800704710435865704700380240044B9A6D8E
:100C180019B922EA00009865704710439865704733
:100C280000380240044B1A6E19B922EA000018660F
:100C3800704710431866704700380240044B5A6EDC
:100C480019B922EA00005866704710435866704781
:100C580000380240044B1A7819B922EA00001870CB
:100C680070471043187070470D3802404309012B34
:100C78000BD0022B094B0CBF1B6F5B6F00F01F00E2
:100C880023FA00F000F001007047044B1B6800F0E5
:100C98001F0023FA00F000F00100704700380240FE
:100CA800024B5A6F42F080725A6770470038024010
:100CB800034BDB6818420CBF00200120704700BFBF
:100CC80000380240014B1870704700BF0E380240D0
:100CD80008B53C4B984224D03B4B98422BD03B4B19
:100CE800984232D03A4B984239D03A4B984240D049
:100CF800394B984247D0394B98424ED0384B98429E
:100D080055D0384B984200D008BD4FF4807001216F
:100D1800FFF728FF4FF480700021BDE80840FFF777
:100D280021BF01200146FFF71DFF01200021BDE87A
:100D38000840FFF717BF02200121FFF713FF022029
:100D48000021BDE80840FFF70DBF04200121FFF78F
:100D580009FF04200021BDE80840FFF703BF082071
:100D68000121FFF7FFFE08200021BDE80840FFF73A
:100D7800F9BE10200121FFF7F5FE10200021BDE883
:100D88000840FFF7EFBE20200121FFF7EBFE2020EF
:100D98000021BDE80840FFF7E5BE40200121FFF72C
:100DA800E1FE40200021BDE80840FFF7DBBE8020BF
:100DB8000121FFF7D7FE80200021BDE80840FFF79A
:100DC800D1BE00BF000002400004024000080240FB
:100DD800000C0240001002400014024000180240BB
:100DE800001C02400020024000222DE9F0071346B3
:100DF8000E6801274FF0030804E00133102B02F1BD
:100E080002022CD007FA03F404EA0605A542F4D13D
:100E1800D0F8009091F804C008FA02F4E44304EA18
:100E28000909C0F80090D0F800900CFA02FA0CF109
:100E3800FF3C4AEA0909BCF1010FC0F8009011D93A
:100E4800C56891F807C02C40C460C5680CFA02F464
:100E580001332C43102BC46002F10202D2D1BDE849
:100E6800F0077047D0F808A091F8059091F806C0EF
:100E780004EA0A0AC0F808A0D0F808A009FA02F99A
:100E880049EA0A09C0F80890D0F8049029EA05054B
:100E9800456045680CFA03FC1FFA8CFC4CEA050512
:100EA8004560CDE700234FF6FF720260037143717E
:100EB8008371C371704700BF82B04FF480330193D0
:100EC800019B0B430193019BC361C161019BC361FA
:100ED800C3690193C369019302B07047036919425A
:100EE8000CBF002001207047006980B2704700BF26
:100EF800436919420CBF002001207047406980B245
:100F0800704700BF01837047418370470AB9418326
:100F180070470183704700BF41617047436959407A
:100F280041617047CB0800EB830001F0070110B462
:100F38008900046A0F238B4024EA03030362036ACF
:100F48005DF8044B8A4013430362704708B5174B9A
:100F5800984212D0164B98421BD0164B984200D09C
:100F680008BD4FF400400121FFF720FE4FF4004078
:100F78000021BDE80840FFF719BE4FF48050012159
:100F8800FFF720FE4FF480500021BDE80840FFF72E
:100F980019BE4FF480400121FFF708FE4FF480404E
:100FA8000021BDE80840FFF701BE00BF0030014046
:100FB80000380040003C00402DE9F007B1F802A0DD
:100FC800B1F80090B1F804800F894E898D89CC89D9
:100FD800B1F806C00A8A03884AEA090141EA080109
:100FE80041EA0C01394331432943214303F4415376
:100FF8000B439BB20380838B23F400631B041B0CFD
:101008008383BDE8F0070282704700BF838B8A683C
:1010180023F47B6323F00F031B042DE9F0031B0C5F
:10102800022483830484B0F81CC0A2421FFA8CFCFB
:1010380052D02B4B8C889D68002C0CBF4FF00108B8
:101048004FF002082D0242D4254BDFF89C90D3F8CC
:101058008450D3F884605F68CB8807F03F07C5F3F6
:101068008815B9FBF7F7B3F5007FC6F3027605FBE1
:1010780007F5B5FBF6F516BF4FEA48182D0AB5FB7C
:10108800F8F505EB85056D00B5FBF2F20532154D57
:1010980092B2A5FB0262D2085508AE1E02F0010208
:1010A800FD2E94BF45EA022202220F884E888D89C0
:1010B8004CEA070141F4006131432943134389B2E3
:1010C8000C439BB203848483BDE8F00370479D689A
:1010D80025F400059D60B7E78C88CB88E5E700BF5D
:1010E80000380240CDCCCCCC00127A000023072275
:1010F8000282038043808380C3800381438183818C
:10110800C38170470023022282600380438083806A
:10111800C3808381704700BF038829B923F0400347
:101128001B041B0C038070479BB243F040030380F1
:10113800704700BF838B29B923F480631B041B0C01
:10114800838370479BB243F480638383704700BFF7
:10115800038823F400631B041B0C038003889BB2E1
:1011680019430180704700BFB1F5804F038805D04F
:1011780023F480431B041B0C038070479BB243F489
:1011880080430380704700BF4FF6FF63994203888E
:1011980004D09BB243F480730380704723F48073B8
:1011A8001B041B0C03807047838829B923F00403B0
:1011B8001B041B0C838070479BB243F0040383809D
:1011C800704700BF838829B923F010031B041B0C48
:1011D800838070479BB243F010038380704700BF41
:1011E800838B23F47B6323F00F031B0402221B0C65
:1011F80083830284838B0A8830B44D888C888989DC
:101208009BB22B4343F4006322F40072234392B24F
:101218000B43002A9BB214BF00224FF48072134381
:10122800838330BC704700BF808980B2704700BF9D
:1012380081817047038829B923F400531B041B0CD0
:10124800038070479BB243F400530380704700BF8C
:1012580003889BB243F4805303807047012914BF6D
:10126800008B808A80B27047008A80B2704700BFC6
:1012780083889BB21AB923EA010181807047194318
:10128800818070470123090903FA01F1838889B233
:101298009BB21AB923EA0101818070471943818002
:1012A800704700BF038919420CBF00200120704716
:1012B800C94389B20181704710B48488008901F05C
:1012C8000F03012280B202FA03F31840A4B205D03A
:1012D80009098A4014420CBF002001205DF8044B24
:1012E800704700BF01F00F01012303FA01F1C94360
:1012F80089B20181704700BF08B52B4B984219D0BD
:101308002A4B984220D02A4B984229D0294B984200
:1013180032D0294B98423BD0284B984200D008BD88
:1013280020200121FFF74EFC20200021BDE80840C5
:10133800FFF748BC10200121FFF744FC10200021D2
:10134800BDE80840FFF73EBC4FF400300121FFF72D
:101358002DFC4FF400300021BDE80840FFF726BC03
:101368004FF480200121FFF721FC4FF48020002159
:10137800BDE80840FFF71ABC4FF400200121FFF731
:1013880015FC4FF400200021BDE80840FFF70EBC13
:101398004FF480100121FFF709FC4FF48010002161
:1013A800BDE80840FFF702BC0010014000440040BF
:1013B80000480040004C004000500040001401402C
:1013C800F0B50D46018AEF882E89AB88AA8989B2C3
:1013D800044621F44051394368892182A189334365
:1013E80089B2034321F4B05121F00C019BB20B43A5
:1013F800A381A38A9BB223F44073134385B0A382CD
:101408006846FFF701FB1D4B9C4229D003F580631A
:101418009C4225D0029BA2892968A08912B2002A81
:1014280003EB8303B4BF4900890003EB8303B3FBD9
:10143800F1F2134900B2A1FB02535B0964250028AD
:1014480003FB15224FEA03130CDB12013232A1FB16
:101458000251C1F343110B439BB2238105B0F0BD88
:10146800039BD8E7D2003232A1FB0201C1F342113B
:101478000B439BB2238105B0F0BD00BF00100140B3
:101488001F85EB5100234FF416510C220160428155
:101498008380C38003818381704700BF30B40A888A
:1014A8004D888C88038AC9882A4322430A439BB201
:1014B80092B223F470631343038230BC704700BFB9
:1014C8000023038043808380C3807047838929B9C0
:1014D80023F400531B041B0C838170479BB243F415
:1014E80000538381704700BF038B03F47F4303835A
:1014F800038B9BB219430183704700BF838919B9D5
:10150800C3F30E03838170476FEA43436FEA534383
:101518009BB28381704700BF838A29B923F4006393
:101528001B041B0C838270479BB243F400638382C5
:10153800704700BFC1F30801818070478088C0F3FD
:1015480008007047038A23F00F031B041B0C038257
:10155800038A9BB219430182704700BF838929B966
:1015680023F002031B041B0C838170479BB243F0DA
:1015780002038381704700BF838923F400631B043F
:101588001B0C838183899BB219438181704700BFFB
:10159800038A23F020031B041B0C0382038A9BB2DB
:1015A80019430182704700BF038A29B923F4804395
:1015B8001B041B0C038270479BB243F480430382D5
:1015C800704700BF83899BB243F001038381704752
:1015D800838A29B923F008031B041B0C83827047F4
:1015E8009BB243F008038382704700BF038BDBB2D2
:1015F8000383038B9BB243EA01210183704700BF39
:10160800838A29B923F020031B041B0C83827047AB
:101618009BB243F020038382704700BF838A29B9B5
:1016280023F010031B041B0C838270479BB243F00A
:1016380010038382704700BF838A23F004031B04CE
:101648001B0C8382838A9BB219438182704700BF37
:10165800838A29B923F002031B041B0C8382704779
:101668009BB243F002038382704700BF838A9BB218
:101678001AB923EA010181827047194381827047B0
:1016880001F01F0310B4C1F342110124A14204FA6E
:1016980003F310D002290CBF1030143004682AB9A3
:1016A80024EA030303605DF8044B70472343036097
:1016B8005DF8044B70470C30F0E700BF038819420F
:1016C8000CBF002001207047C94389B201807047D0
:1016D80010B4C1F34213012401F01F02A34204FA1B
:1016E80002F217D0022B0CBF038A838A9BB21340E5
:1016F800028892B253B1090A012303FA01F1114297
:101708000CBF002001205DF8044B704718465DF8B7
:10171800044B704783899BB21340E9E7090A012308
:1017280003FA01F1C94389B201807047F8B5FEF7A1
:10173800ABFD114B114C8A221A810120FEF78CFF58
:10174800FEF766FF27886688A58849F63C43013B73
:10175800FDD10B48FEF70AFE38B2FEF775FD0948C1
:10176800FEF704FE30B2FEF76FFD0648FEF7FEFDF9
:1017780028B2FEF769FDE3E700440040A804002012
:10178800D01A0008D41A0008002100F004B80D4B44
:101798005B58435004310C480C4B42189A42FFF4F2
:1017A800F6AF0B4A00F003B8002342F8043B094B9C
:1017B8009A42FFF4F9AFFEF7FBFD00F01FF8FFF7C0
:1017C800B5FF7047101B00080000002084040020AB
:1017D80088040020B4040020FFF7FEBF08B50021EC
:1017E800044600F087F8044B1868C36B03B19847A8
:1017F800204600F07FF900BFDC1A000870B50F4ED4
:101808000F4D761BB61007D0043D0024013455F85F
:10181800043F9847A642F9D10A4E0B4D761B00F0BB
:101828005DF9B61008D0043D0024013455F8043F92
:101838009847A642F9D170BD70BD00BF041B0008CF
:10184800041B00080C1B0008041B0008F0B48407E4
:1018580043D0541E002A3ED0CDB2034603E0621E98
:10186800002C38D0144603F8015B9A07F7D1032CF3
:101878002AD9CDB245EA05250F2C45EA054515D9E3
:10188800A4F110073F0903F1100606EB07161A46E4
:10189800156055609560D5601032B242F8D104F0F9
:1018A8000F040137032C03EB07130DD91E462246FC
:1018B800043A032A46F8045BFAD8221F22F00302EE
:1018C8000432134404F003042CB1C9B21C4403F8D5
:1018D800011BA342FBD1F0BC704714460346C6E780
:1018E800024B13B1024800F07DB8704700000000B9
:1018F800F91900082DE9F04F384B1B6885B003F53E
:10190800A472019302900F460392019BD3F8488179
:10191800B8F1000F1CD0DDF80CB04FF00109DA4621
:10192800D8F804305C1E11D408F188059E1C05EB1C
:10193800830508EB860677B1EB6FBB420BD0013C01
:10194800631CA5F10405A6F10406F4D1244A7ABB68
:1019580005B0BDE8F08FD8F8042056F8043C013AE9
:10196800A24216BF0022C8F8044046F8042C002BF7
:10197800E5D0D8F88811D8F804B009FA04F20A4278
:1019880010D0D8F88C110A420ED1029855F8041CD0
:101998009847D8F804305B45B7D1DAF800304345AA
:1019A800CDD0B2E79847F4E755F8040C9847F0E72C
:1019B800D8F804306BB9D8F8003063B14046CAF89B
:1019C8000030AFF30080DAF80080B8F1000FA7D13B
:1019D800BEE7D8F80030C2469846F6E7DC1A000899
:1019E80000000000014600200246034600F018B837
:1019F80038B5094D094C641BA41018BF05EB8405C4
:101A080005D0013C55F8043D9847002CF9D1BDE8B4
:101A1800384000F069B800BF0C1B0008101B000814
:101A2800F0B5274C2668D6F8484185B00746002C03
:101A380041D065681F2D1EDD224818B94FF0FF30D0
:101A480005B0F0BD4FF4C870039102920193AFF353
:101A580000800399029A019B04460028EED0D6F82C
:101A680048512560002060600546C6F84841C4F822
:101A78008801C4F88C013FB9AB1C002001356560B2
:101A880044F8231005B0F0BD04EB85004FF0010CBD
:101A9800C0F88820D4F888610CFA05F21643022FA2
:101AA800C4F88861C0F80831E6D1D4F88C311A43FB
:101AB800C4F88C21E0E706F5A674C6F84841B8E7F3
:101AC800DC1A0008000000000A0D00002C000000CD
:101AD800430000005800002000000000F8B500BFD7
:101AE800F8BC08BC9E467047F8B500BFF8BC08BCF7
:041AF8009E4670474F
:081AFC00E0E6FF7F010000009D
:081B0400E9180008AD0100081A
:041B0C008901000843
:101B100000000000000000000000000001020304BB
:101B200006070809007A030A0000024020000000AE
:101B300001000000050000000000024080000000DD
:101B4000010000000700000000000240400000000B
:101B50000100000006000000000000000102030474
:101B600001020304060708090000000044030020E6
:101B7000AC0300201404002000000000000000005E
:101B80000000000000000000000000000000000055
:101B9000000000000000000000000000D81A00084B
:101BA0000000000000000000000000000000000035
:101BB0000000000000000000000000000000000025
:101BC0000000000000000000000000000000000015
:101BD0000000000000000000000000000000000005
:101BE00000000000000000000000000000000000F5
:101BF00000000000000000000000000000000000E5
:101C000000000000000000000000000000000000D4
:101C100001000000000000000E33CDAB34126DE671
:101C2000ECDE05000B0000000000000000000000DA
:101C300000000000000000000000000000000000A4
:101C40000000000000000000000000000000000094
:101C50000000000000000000000000000000000084
:101C60000000000000000000000000000000000074
:041F900058000020D5
:041F94000000000049
:040000050800179147
:00000001FF
